:020000040800F2
:10000000008001201D0200086D0200086D0200083A
:100010006D0200086D0200086D020008000000007B
:100020000000000000000000000000006D02000859
:100030006D020008000000006D0200086D0200085B
:100040006D0200086D0200086D0200086D020008D4
:100050006D0200086D0200086D0200086D020008C4
:100060006D0200086D0200086D0200086D020008B4
:100070006D0200086D0200086D0200086D020008A4
:100080006D0200086D0200086D020008000000000B
:100090000000000000000000000000006D020008E9
:1000A0006D0200086D0200086D0200086D02000874
:1000B0006D0200086D0200086D0200086D02000864
:1000C0006D0200086D0200086D0200086D02000854
:1000D0006D0200086D0200086D02000800000000BB
:1000E0006D0200086D0200086D02000800000000AB
:1000F0000000000000000000000000006D02000889
:10010000000000006D0200086D0200086D0200088A
:1001100000000000000000000000000000000000DF
:100120006D0200086D0200086D0200086D020008F3
:100130006D02000800000000000000000000000048
:100140000000000000000000000000006D02000838
:100150006D0200086D0200086D0200086D020008C3
:100160006D0200086D0200080000000000000000A1
:10017000000000000000000000000000000000007F
:10018000000000006D0200080000000000000000F8
:040190006D020008F4
:1001940010B5054C237833B9044B13B10448AFF3BD
:1001A40000800123237010BD000000200000000027
:1001B4008003000808B5034B1BB103490348AFF3A0
:1001C400008008BD00000000040000208003000837
:1001D40070B50D4E0D4CA41BA4100025A54209D1E9
:1001E4000B4E0C4C00F0CAF8A41BA4100025A54229
:1001F40005D170BD56F8253098470135EEE756F81D
:10020400253098470135F2E7980300089803000861
:10021400980300089C030008DFF834D0002103E0B1
:100224000C4B5B58435004310B480C4B42189A4218
:10023400F6D30B4A02E0002342F8043B094B9A42EE
:10024400F9D300F073F8FFF7C3FF00F06FF87047BD
:1002540000800120A003000800000020000000200E
:10026400000000201C000020FEE7000082B00023F4
:1002740001930093294A136843F480331360274B96
:100284001B6803F400330093019B01330193009B2B
:100294001BB9019BB3F5A04FF1D1204B1B6813F49C
:1002A400003F06D001230093009B012B04D002B031
:1002B400704700230093F7E7184B1A6C42F0805202
:1002C4001A6417490A6842F440420A609A689A60BC
:1002D4009A689A609A6842F480529A60114A5A6005
:1002E4001A6842F080721A600C4B1B6813F0007F8E
:1002F400FAD00D4B40F202721A60A3F580639A683B
:1003040022F003029A609A6842F002029A60034B58
:100314009B6803F00C03082BF9D1C8E700380240AE
:100324000070004019544107003C024010B5104CC5
:10033400D4F8883043F47003C4F888300D4B1A683D
:1003440042F001021A60002199601A6822F0847256
:1003540022F480321A60084A5A601A6822F4802211
:100364001A60D960FFF782FF4FF00063A36010BDED
:1003740000ED00E00038024010300024F8B500BF62
:10038400F8BC08BC9E467047F8B500BFF8BC08BC72
:040394009E467047CA
:04039800B90100089F
:04039C0095010008BF
:040000050800021DD0
:00000001FF
